{
  "contractName": "CoinToss",
  "abi": [
    {
      "inputs": [
        {
          "internalType": "uint256",
          "name": "_factor",
          "type": "uint256"
        }
      ],
      "stateMutability": "nonpayable",
      "type": "constructor"
    },
    {
      "inputs": [
        {
          "internalType": "bool",
          "name": "returnFund",
          "type": "bool"
        }
      ],
      "name": "InsufficientTreasuryBalance",
      "type": "error"
    },
    {
      "anonymous": false,
      "inputs": [
        {
          "indexed": false,
          "internalType": "bytes",
          "name": "",
          "type": "bytes"
        },
        {
          "indexed": false,
          "internalType": "address",
          "name": "",
          "type": "address"
        },
        {
          "indexed": false,
          "internalType": "uint256",
          "name": "",
          "type": "uint256"
        }
      ],
      "name": "BalanceTransferedFromTreasurey",
      "type": "event"
    },
    {
      "stateMutability": "payable",
      "type": "receive",
      "payable": true
    },
    {
      "inputs": [
        {
          "internalType": "bool",
          "name": "_guess",
          "type": "bool"
        }
      ],
      "name": "play",
      "outputs": [
        {
          "internalType": "bool",
          "name": "",
          "type": "bool"
        }
      ],
      "stateMutability": "payable",
      "type": "function",
      "payable": true
    },
    {
      "inputs": [],
      "name": "withdraw",
      "outputs": [],
      "stateMutability": "nonpayable",
      "type": "function"
    }
  ],
  "bytecode": "0x608060405234801561001057600080fd5b5060405161083d38038061083d83398181016040528101906100329190610054565b80600181905550506100a7565b60008151905061004e81610090565b92915050565b60006020828403121561006a5761006961008b565b5b60006100788482850161003f565b91505092915050565b6000819050919050565b600080fd5b61009981610081565b81146100a457600080fd5b50565b610787806100b66000396000f3fe60806040526004361061002d5760003560e01c80633ccfd60b14610039578063c23c87d51461005057610034565b3661003457005b600080fd5b34801561004557600080fd5b5061004e610080565b005b61006a6004803603810190610065919061032f565b6100c9565b6040516100779190610440565b60405180910390f35b3373ffffffffffffffffffffffffffffffffffffffff166108fc479081150290604051600060405180830381858888f193505050501580156100c6573d6000803e3d6000fd5b50565b600080341161010d576040517f08c379a0000000000000000000000000000000000000000000000000000000008152600401610104906104b9565b60405180910390fd5b4760023461011b9190610542565b1061015e5760016040517f12b728a60000000000000000000000000000000000000000000000000000000081526004016101559190610440565b60405180910390fd5b6000610168610283565b9050821515811515141561027a576000803373ffffffffffffffffffffffffffffffffffffffff1660023461019d9190610542565b6040516101a99061042b565b60006040518083038185875af1925050503d80600081146101e6576040519150601f19603f3d011682016040523d82523d6000602084013e6101eb565b606091505b509150915081610230576040517f08c379a000000000000000000000000000000000000000000000000000000000815260040161022790610499565b60405180910390fd5b7f954ce8b39215a4996e1008f86606428d0243de0a93d3ee40eed6a3f54fd1cac481336002346102609190610542565b60405161026f9392919061045b565b60405180910390a150505b80915050919050565b60008061029a6001436102ee90919063ffffffff16565b4060001c90508060005414156102af57600080fd5b8060008190555060006102cd6001548361030490919063ffffffff16565b90506000600182146102e05760006102e3565b60015b905080935050505090565b600081836102fc919061059c565b905092915050565b600081836103129190610511565b905092915050565b6000813590506103298161073a565b92915050565b600060208284031215610345576103446106a9565b5b60006103538482850161031a565b91505092915050565b610365816105d0565b82525050565b610374816105e2565b82525050565b6000610385826104d9565b61038f81856104e4565b935061039f818560208601610618565b6103a8816106ae565b840191505092915050565b60006103c0601483610500565b91506103cb826106bf565b602082019050919050565b60006103e3602983610500565b91506103ee826106e8565b604082019050919050565b60006104066000836104f5565b915061041182610737565b600082019050919050565b6104258161060e565b82525050565b6000610436826103f9565b9150819050919050565b6000602082019050610455600083018461036b565b92915050565b60006060820190508181036000830152610475818661037a565b9050610484602083018561035c565b610491604083018461041c565b949350505050565b600060208201905081810360008301526104b2816103b3565b9050919050565b600060208201905081810360008301526104d2816103d6565b9050919050565b600081519050919050565b600082825260208201905092915050565b600081905092915050565b600082825260208201905092915050565b600061051c8261060e565b91506105278361060e565b9250826105375761053661067a565b5b828204905092915050565b600061054d8261060e565b91506105588361060e565b9250817fffffffffffffffffffffffffffffffffffffffffffffffffffffffffffffffff04831182151516156105915761059061064b565b5b828202905092915050565b60006105a78261060e565b91506105b28361060e565b9250828210156105c5576105c461064b565b5b828203905092915050565b60006105db826105ee565b9050919050565b60008115159050919050565b600073ffffffffffffffffffffffffffffffffffffffff82169050919050565b6000819050919050565b60005b8381101561063657808201518184015260208101905061061b565b83811115610645576000848401525b50505050565b7f4e487b7100000000000000000000000000000000000000000000000000000000600052601160045260246000fd5b7f4e487b7100000000000000000000000000000000000000000000000000000000600052601260045260246000fd5b600080fd5b6000601f19601f8301169050919050565b7f4661696c656420746f2073656e64204574686572000000000000000000000000600082015250565b7f596f75206d757374207061737320736f6d65206574682076616c756520746f2060008201527f706c61792067616d650000000000000000000000000000000000000000000000602082015250565b50565b610743816105e2565b811461074e57600080fd5b5056fea264697066735822122035017a754fddba90e062ef8f6a0b1451e564a1507cd60f9361dac30a04fb257364736f6c63430008070033",
  "immutableReferences": {},
  "source": "/**\n *Submitted for verification at Etherscan.io on 2022-10-03\n*/\n\n// SPDX-License-Identifier: MIT\n\npragma solidity ^0.8.0;\n\n/**\n * @dev Wrappers over Solidity's arithmetic operations.\n *\n * NOTE: `SafeMath` is generally not needed starting with Solidity 0.8, since the compiler\n * now has built in overflow checking.\n */\nlibrary SafeMath {\n    /**\n     * @dev Returns the addition of two unsigned integers, with an overflow flag.\n     *\n     * _Available since v3.4._\n     */\n    function tryAdd(uint256 a, uint256 b) internal pure returns (bool, uint256) {\n        unchecked {\n            uint256 c = a + b;\n            if (c < a) return (false, 0);\n            return (true, c);\n        }\n    }\n\n    /**\n     * @dev Returns the subtraction of two unsigned integers, with an overflow flag.\n     *\n     * _Available since v3.4._\n     */\n    function trySub(uint256 a, uint256 b) internal pure returns (bool, uint256) {\n        unchecked {\n            if (b > a) return (false, 0);\n            return (true, a - b);\n        }\n    }\n\n    /**\n     * @dev Returns the multiplication of two unsigned integers, with an overflow flag.\n     *\n     * _Available since v3.4._\n     */\n    function tryMul(uint256 a, uint256 b) internal pure returns (bool, uint256) {\n        unchecked {\n            // Gas optimization: this is cheaper than requiring 'a' not being zero, but the\n            // benefit is lost if 'b' is also tested.\n            // See: https://github.com/OpenZeppelin/openzeppelin-contracts/pull/522\n            if (a == 0) return (true, 0);\n            uint256 c = a * b;\n            if (c / a != b) return (false, 0);\n            return (true, c);\n        }\n    }\n\n    /**\n     * @dev Returns the division of two unsigned integers, with a division by zero flag.\n     *\n     * _Available since v3.4._\n     */\n    function tryDiv(uint256 a, uint256 b) internal pure returns (bool, uint256) {\n        unchecked {\n            if (b == 0) return (false, 0);\n            return (true, a / b);\n        }\n    }\n\n    /**\n     * @dev Returns the remainder of dividing two unsigned integers, with a division by zero flag.\n     *\n     * _Available since v3.4._\n     */\n    function tryMod(uint256 a, uint256 b) internal pure returns (bool, uint256) {\n        unchecked {\n            if (b == 0) return (false, 0);\n            return (true, a % b);\n        }\n    }\n\n    /**\n     * @dev Returns the addition of two unsigned integers, reverting on\n     * overflow.\n     *\n     * Counterpart to Solidity's `+` operator.\n     *\n     * Requirements:\n     *\n     * - Addition cannot overflow.\n     */\n    function add(uint256 a, uint256 b) internal pure returns (uint256) {\n        return a + b;\n    }\n\n    /**\n     * @dev Returns the subtraction of two unsigned integers, reverting on\n     * overflow (when the result is negative).\n     *\n     * Counterpart to Solidity's `-` operator.\n     *\n     * Requirements:\n     *\n     * - Subtraction cannot overflow.\n     */\n    function sub(uint256 a, uint256 b) internal pure returns (uint256) {\n        return a - b;\n    }\n\n    /**\n     * @dev Returns the multiplication of two unsigned integers, reverting on\n     * overflow.\n     *\n     * Counterpart to Solidity's `*` operator.\n     *\n     * Requirements:\n     *\n     * - Multiplication cannot overflow.\n     */\n    function mul(uint256 a, uint256 b) internal pure returns (uint256) {\n        return a * b;\n    }\n\n    /**\n     * @dev Returns the integer division of two unsigned integers, reverting on\n     * division by zero. The result is rounded towards zero.\n     *\n     * Counterpart to Solidity's `/` operator.\n     *\n     * Requirements:\n     *\n     * - The divisor cannot be zero.\n     */\n    function div(uint256 a, uint256 b) internal pure returns (uint256) {\n        return a / b;\n    }\n\n    /**\n     * @dev Returns the remainder of dividing two unsigned integers. (unsigned integer modulo),\n     * reverting when dividing by zero.\n     *\n     * Counterpart to Solidity's `%` operator. This function uses a `revert`\n     * opcode (which leaves remaining gas untouched) while Solidity uses an\n     * invalid opcode to revert (consuming all remaining gas).\n     *\n     * Requirements:\n     *\n     * - The divisor cannot be zero.\n     */\n    function mod(uint256 a, uint256 b) internal pure returns (uint256) {\n        return a % b;\n    }\n\n    /**\n     * @dev Returns the subtraction of two unsigned integers, reverting with custom message on\n     * overflow (when the result is negative).\n     *\n     * CAUTION: This function is deprecated because it requires allocating memory for the error\n     * message unnecessarily. For custom revert reasons use {trySub}.\n     *\n     * Counterpart to Solidity's `-` operator.\n     *\n     * Requirements:\n     *\n     * - Subtraction cannot overflow.\n     */\n    function sub(\n        uint256 a,\n        uint256 b,\n        string memory errorMessage\n    ) internal pure returns (uint256) {\n        unchecked {\n            require(b <= a, errorMessage);\n            return a - b;\n        }\n    }\n\n    /**\n     * @dev Returns the integer division of two unsigned integers, reverting with custom message on\n     * division by zero. The result is rounded towards zero.\n     *\n     * Counterpart to Solidity's `/` operator. Note: this function uses a\n     * `revert` opcode (which leaves remaining gas untouched) while Solidity\n     * uses an invalid opcode to revert (consuming all remaining gas).\n     *\n     * Requirements:\n     *\n     * - The divisor cannot be zero.\n     */\n    function div(\n        uint256 a,\n        uint256 b,\n        string memory errorMessage\n    ) internal pure returns (uint256) {\n        unchecked {\n            require(b > 0, errorMessage);\n            return a / b;\n        }\n    }\n\n    /**\n     * @dev Returns the remainder of dividing two unsigned integers. (unsigned integer modulo),\n     * reverting with custom message when dividing by zero.\n     *\n     * CAUTION: This function is deprecated because it requires allocating memory for the error\n     * message unnecessarily. For custom revert reasons use {tryMod}.\n     *\n     * Counterpart to Solidity's `%` operator. This function uses a `revert`\n     * opcode (which leaves remaining gas untouched) while Solidity uses an\n     * invalid opcode to revert (consuming all remaining gas).\n     *\n     * Requirements:\n     *\n     * - The divisor cannot be zero.\n     */\n    function mod(\n        uint256 a,\n        uint256 b,\n        string memory errorMessage\n    ) internal pure returns (uint256) {\n        unchecked {\n            require(b > 0, errorMessage);\n            return a % b;\n        }\n    }\n}\n\n/// @title A coin toss game\n/// @author Waris A\n/// @notice You can use this contract for only the most basic simulation\n/// @dev All function calls are currently implemented without side effects\n/// @custom:experimental This is an experimental contract.\ncontract CoinToss {\n\n  \tusing SafeMath for uint256;\n  \tuint256 lastHash;\n  \tuint256 FACTOR;\n  \t\n  \t//custom error\n\terror InsufficientTreasuryBalance(bool returnFund);\n\t\n\tevent BalanceTransferedFromTreasurey(bytes , address , uint256);\n\n  \tconstructor(uint256 _factor) {\n    \tFACTOR = _factor; // 57896044618658097711785492504343953926634992332820282019728792003956564819968;\n  \t}\n\n    receive() external payable {        \n\t}\n\n  \t/// @notice play coin toss game by providing some ETH value , if won contract will return twice of the given amount\n    /// @dev contract must have twice of the value passed to satisfy win condition\n    /// @param _guess The guess/bet for the coin side\n    /// @return bool result of the output coin side\n  \tfunction play(bool _guess) public payable returns(bool){\n\n      require(msg.value > 0 , \"You must pass some eth value to play game\");\n\n      // If the amount sent is larger than the contracts current treasury balance, the contract should send the funds back as-is\n      // To satisfy win condition contract must have twice of msg.value.\n      if( (msg.value * 2 ) >= address(this).balance ){\n        revert InsufficientTreasuryBalance({returnFund : true});\n      }\n\n      //call to toss (true : head , false : tails)\n      bool result = toss();\n\n      //user won so returns twice the amount\n      if(result == _guess){ \n        (bool sent, bytes memory data) = payable(msg.sender).call{value: (msg.value * 2)}(\"\");\n        require(sent, \"Failed to send Ether\");\n        emit BalanceTransferedFromTreasurey(data , msg.sender , msg.value * 2); \n      }\n      return result;\n  \t}\n\n\t/// @notice random number logic with blockhash mechanism \n    /// @dev revert condition to prevent from hacks\n    /// @return bool result of the output coin side\n    function toss() internal returns (bool) {\n        \n        uint256 blockValue = uint256(blockhash(block.number.sub(1)));    \n        if (lastHash == blockValue) {\n            revert();\n        }        \n        lastHash = blockValue;\n        uint256 coinFlip = blockValue.div(FACTOR);\n\n        //true : head\n        //false : tails\n        bool side = coinFlip == 1 ? true : false;\n        return side;\n    }\n\n    function withdraw() public {\n        payable(msg.sender).transfer(address(this).balance);\n    }\n}\n",
  "sourcePath": "/home/hp/assignment-task/deriv-assigment/contracts/CoinToss.sol",
  "compiler": {
    "name": "solc",
    "version": "0.8.7+commit.e28d00a7.Emscripten.clang"
  },
  "schemaVersion": "3.3.4",
  "updatedAt": "2022-10-04T03:24:55.572Z",
  "networkType": "ethereum",
  "devdoc": {
    "author": "Waris A",
    "custom:experimental": "This is an experimental contract.",
    "details": "All function calls are currently implemented without side effects",
    "kind": "dev",
    "methods": {
      "play(bool)": {
        "details": "contract must have twice of the value passed to satisfy win condition",
        "params": {
          "_guess": "The guess/bet for the coin side"
        },
        "returns": {
          "_0": "bool result of the output coin side"
        }
      }
    },
    "title": "A coin toss game",
    "version": 1
  },
  "userdoc": {
    "kind": "user",
    "methods": {
      "play(bool)": {
        "notice": "play coin toss game by providing some ETH value , if won contract will return twice of the given amount"
      }
    },
    "notice": "You can use this contract for only the most basic simulation",
    "version": 1
  }
}